:020000040800F2
:10000000D806002019480008A5270008A7270008DF
:10001000AB270008AF270008B32700080000000046
:10002000000000000000000000000000B7270008EA
:10003000B927000800000000BB270008BD27000802
:1000400033480008334800083348000833480008A4
:100050003348000833480008334800083348000894
:100060003348000833480008334800083348000884
:100070003348000833480008334800083348000874
:100080003348000833480008334800083348000864
:100090003348000833480008334800083348000854
:1000A0003348000833480008334800083348000844
:1000B0003348000833480008334800083348000834
:1000C0003348000833480008334800083348000824
:1000D0003348000833480008334800084328000824
:1000E000334800083348000833480008DFF80CD0D4
:1000F00007F0BAFF00480047D9260008D8060020BC
:1001000036490143364A1160704770B5002100231B
:100110000F22C4784CB3324C246804F4E064C4F574
:10012000E0644FEA1421C1F1040322FA01F2447899
:1001300004FA03F1847804EA020444EA01014FEA74
:100140000111284C0678A155047804F01F054FF0E2
:10015000010404FA05F405784FEA65154FF0E0262E
:1001600006EB8505C5F8004109E0047804F01F0599
:100170000124AC401C4D0678761145F8264070BD30
:100180001A4A0A4002431A4B1A60704741B1194A91
:10019000126842EA00024FF0E023C3F8102D07E096
:1001A000144A126822EA00024FF0E023C3F8102D2F
:1001B0007047042808D14FF0E021096941F004019B
:1001C0004FF0E022116107E04FF0E021096921F0D2
:1001D00004014FF0E0221161704700000000FA05B1
:1001E0000CED00E000E400E080E100E080FFFF1F94
:1001F00008ED00E010ED00E010B50446CA48844266
:1002000008D10121042000F024FB0021042000F08B
:1002100020FB46E0C548844208D10121082000F0B7
:1002200018FB0021082000F014FB3AE0C04884428B
:1002300008D10121102000F00CFB0021102000F05B
:1002400008FB2EE0BB48844208D10121202000F0A9
:1002500000FB0021202000F0FCFA22E0B648844296
:1002600008D10121402000F0F4FA0021402000F0E4
:10027000F0FA16E0B148844208D10121802000F054
:10028000E8FA0021802000F0E4FA0AE0AC48844259
:1002900007D10121801500F0DCFA0021A01500F043
:1002A000D8FA10BD10B50121084600F0D2FA00219D
:1002B000012000F0CEFA10BD2DE9F04102460025E4
:1002C0000026002000230024002791F803C00CF032
:1002D0000F0591F803C01CF0100F03D091F802C075
:1002E0004CEA0505B1F800C01CF0FF0F31D01468CE
:1002F00000202BE04FF0010C0CFA00F3B1F800C025
:100300000CEA03069E4220D183004FF00F0C0CFA3A
:1003100003F7BC4305FA03FC4CEA040491F803C05C
:10032000BCF1280F06D14FF0010C0CFA00FCC2F80A
:1003300014C00AE091F803C0BCF1480F05D14FF09A
:10034000010C0CFA00FCC2F810C0401C0828D1D3E4
:100350001460B1F800C0BCF1FF0F34DD5468002018
:100360002EE000F1080C4FF0010808FA0CF3B1F888
:1003700000C00CEA03069E4221D183004FF00F0C0F
:100380000CFA03F7BC4305FA03FC4CEA040491F8A9
:1003900003C0BCF1280F05D100F1080C08FA0CF8D5
:1003A000C2F8148091F803C0BCF1480F07D100F1E6
:1003B000080C4FF0010808FA0CF8C2F81080401C35
:1003C0000828CED35460BDE8F0814FF6FF7101805C
:1003D000022181700421C170704702460020936899
:1003E0000B4201D0012000E00020704701468868E0
:1003F00080B2704702460020D3680B4201D0012032
:1004000000E0002070470146C86880B27047016173
:100410007047416170470AB1016100E04161704776
:10042000C16070474FF480320A438261816182610A
:1004300082698269704702460020424B18684FF675
:100440008073184040EA021008433E4B1860704722
:100450003D49C8617047F0B50A46002300240021D9
:10046000002500F00046B6F1004F02D1354EF1698B
:1004700001E0344E7168C0F3034583B200F44016C6
:10048000B6F5401F08D121F070612E4E766826F037
:1004900070662C4F7E6012E000F48016B6F5801F67
:1004A00006D1032606FA05F4A14341F0706106E087
:1004B000460D360103FA06F6B14341F0706122B1F0
:1004C000460D360103FA06F6314300F00046B6F158
:1004D000004F02D11B4EF16101E01A4E7160F0BD78
:1004E00030B500228B071C0F0F2303FA04F2154BC3
:1004F00008338C1053F824309343124C08348D1079
:1005000044F8253023468C1053F824308C07240FF0
:1005100000FA04F423430B4C08348D1044F82530C2
:1005200030BD0A490860704700080140000C0140D6
:10053000001001400014014000180140001C01405F
:10054000002001400000014000002042DC00204269
:10055000DB48006840F00100D9490860084640685F
:10056000D8490840D649486008460068D64908403E
:10057000D34908600846006820F4802008600846D7
:10058000406820F4FE0048604FF41F008860704708
:10059000CB49096821F48031C94A116011460968C4
:1005A00021F480211160B0F5803F03D0B0F5802F99
:1005B0000ED106E0C249096841F48031C04A116099
:1005C00007E0BF49096841F4A021BD4A116000E07D
:1005D00000BF00BF704710B5014600220023002075
:1005E0004A11012A02D1B64C236806E0022A02D140
:1005F000B34C236A01E0B24C636A01F01F0201248C
:1006000094401C4201D0012000E0002010BD70B5D4
:1006100000240025002600BF3120FFF7DCFF06463E
:10062000641CB4F5A06F01D0002EF5D03120FFF787
:10063000D2FF08B1012500E00025284670BD014623
:1006400000209F4A106820F0F80040EAC1001060C6
:1006500070479E490860704702460020984B5868D2
:1006600020F47C1042EA01031843954B5860704710
:1006700096490866704701460020914A506820F06C
:1006800003000843506070478D48406800F00C003C
:100690007047014600208A4A506820F0F000084365
:1006A0005060704701460020854A506820F4E060A1
:1006B00008435060704701460020814A506820F48A
:1006C000605040EAC1005060704729B17C4A527ABC
:1006D00002437B4B5A7206E0794A527AC343DBB23B
:1006E0001A40774B5A727047794908607047014643
:1006F0000020734A506820F440400843506070471F
:100700000021744A11706E4A82F82010012802D02C
:10071000042808D103E001216E4A117004E005218C
:100720006C4A117000E000BF00BF70476A49086062
:1007300070476349096A0143614A1162704767491A
:100740000860704730B500210022002400235C4D72
:100750006D6805F00C0121B1042905D0082923D1C9
:1007600005E05F4D056022E05D4D05601FE0544DE2
:100770006D6805F47012524D6D6805F480340225E1
:1007800005EB92421CB9574D554305600BE04C4DAB
:100790006D6815F4003F03D0524D5543056002E0EB
:1007A0004F4D5543056002E04D4D056000BF00BF51
:1007B000434D6D6805F0F00109094B4D6B5C056810
:1007C000DD4045603E4D6D6805F4E061090A464D27
:1007D0006B5C4568DD408560394D6D6805F460519E
:1007E000C90A414D6B5C4568DD40C560344D6D689C
:1007F00005F44041890B3D4D6B5CC568B5FBF3F5D5
:10080000056130BD29B12E4A526902432C4B5A6111
:1008100004E02B4A52698243294B5A61704729B13F
:10082000274A92690243264B9A6104E0244A92695E
:100830008243234B9A61704729B1214AD26902430E
:100840001F4BDA6104E01E4AD26982431C4BDA6115
:10085000704729B11A4AD2680243194BDA6004E0A2
:10086000174AD2688243164BDA60704729B1144A9E
:1008700012690243124B1A6104E0114A1269824361
:100880000F4B1A6170471A49086070470F49C864D6
:1008900070470B49C87170470948406A40F0807042
:1008A00007494862704701460020054A92680A429B
:1008B00001D0012000E00020704701498872704794
:1008C000001002400000FFF8FFFFF6FE0000424269
:1008D000D800424220100240800442423C0442427E
:1008E00000127A0000093D000000002010000020E6
:1008F0004004424210B50446FF48844208D1012119
:10090000C014FFF7A6FF0021E014FFF7A2FFC4E028
:10091000B4F1804F08D101210846FFF7A7FF00215D
:100920000120FFF7A3FFB8E0F448844208D1012179
:100930000220FFF79BFF00210220FFF797FFACE0AA
:10094000EF48844208D101210420FFF78FFF0021E6
:100950000420FFF78BFFA0E0EA48844208D1012180
:100960000820FFF783FF00210820FFF77FFF94E0B6
:10097000E548844208D101211020FFF777FF0021CC
:100980001020FFF773FF88E0E048844208D101217E
:100990002020FFF76BFF00212020FFF767FF7CE09E
:1009A000DB48844208D101214014FFF752FF0021A7
:1009B0006014FFF74EFF70E0D648844209D1012150
:1009C000C804FFF746FF00214FF40020FFF741FF66
:1009D00063E0D148844209D101210805FFF739FFBE
:1009E00000214FF48010FFF734FF56E0CB488442DB
:1009F00009D101214805FFF72CFF00214FF4001019
:100A0000FFF727FF49E0C648844208D10121402072
:100A1000FFF72CFF00214020FFF728FF3DE0C148F1
:100A2000844208D101218020FFF720FF002180208F
:100A3000FFF71CFF31E0BC48844208D1012180153A
:100A4000FFF714FF0021A015FFF710FF25E0B748BE
:100A5000844209D101210804FFF7FBFE00214FF475
:100A60008030FFF7F6FE18E0B148844209D1012139
:100A70004804FFF7EEFE00214FF40030FFF7E9FED7
:100A80000BE0AC48844208D101218804FFF7E1FE65
:100A900000214FF48020FFF7DCFE10BD0022028809
:100AA000954B98420ED09A4B98420BD0B0F1804FA4
:100AB00008D0924B984205D0914B984202D0914B6E
:100AC000984204D14FF68F731A404B881A438E4BCD
:100AD000984207D08D4B984204D04FF6FF431A40FE
:100AE000CB881A4302808B8883850B880385824BD1
:100AF00098420BD0864B984208D08C4B984205D038
:100B00008B4B984202D08B4B984201D10B7A0386D3
:100B100001238382704770B5002400220023058CD6
:100B20004FF6FE7635400584028C8388048B4FF6A1
:100B30008F752C40B51E2C400D882C43751E2A4005
:100B40000D892A434D882A436B4DA8420BD0704D26
:100B5000A84208D0754DA84205D0754DA84202D0D4
:100B6000744DA84213D14FF6F7752A404D892A4398
:100B70004FF6FB752A408D882A434FF6FF652B40C0
:100B80004FF6FF552B408D892B43CD892B43838016
:100B90000483CD888586028470BD70B50024002250
:100BA0000023058C4FF6EF7635400584028C838850
:100BB000048B48F6FF752C404FF6FF452C400D88FE
:100BC0002D0644EA15444FF6DF752A400D892D05A0
:100BD00042EA15424D882D0542EA1542464DA8428B
:100BE00002D04B4DA8421BD14FF67F752A404D894C
:100BF0002D0542EA15424FF6BF752A408D882D0516
:100C000042EA15424FF6FF352B404FF2FF752B405D
:100C10008D89AD0443EA1543CD89AD0443EA1543FC
:100C200083800483CD880587028470BD70B500245D
:100C300000220023058C4FF6FF6635400584028CA8
:100C40008388848B4FF68F752C404FF6FC752C40B3
:100C50000D882C434FF6FF552A400D892D0642EA98
:100C600015424D882D0642EA1542234DA84202D076
:100C7000274DA8421BD14FF2FF752A404D892D0602
:100C800042EA15424FF6FF352A408D882D0642EA8A
:100C900015424EF6FF752B404DF6FF752B408D89A2
:100CA0002D0543EA1543CD892D0543EA154383807D
:100CB0008483CD888587028470BD70B500220023AF
:100CC0000024058C4EF6FF7635400584038C84881D
:100CD000828B48F6FF752A404FF6FF452A400D8863
:100CE0002D0642EA15424DF6FF752B400D892D0762
:100CF00043EA15434D881FE0002C014000040040EA
:100D000000080040000C00400010004000140040AB
:100D100000340140004C01400050014000540140AB
:100D200000180040001C004000200040004001402E
:100D300000440140004801402D0743EA1543F94DA6
:100D4000A84202D0F84DA84206D14BF6FF752C40C0
:100D50008D89AD0544EA154484808283CD88A0F84E
:100D60004050038470BD828B4FF2FF331A40828360
:100D7000828B0B0642EA134282837047F0B50C4621
:100D80001546002200210026078C4EF6FF7C07EA5C
:100D90000C070784828B018C27073E0C40F6FF4727
:100DA0003A402F0642EA17421F0742EA1742DD4F38
:100DB000B8420ED0DC4FB8420BD0B0F1804F08D013
:100DC000DA4FB84205D0DA4FB84202D0D94FB84214
:100DD00006D14DF6FF77394046F48057394305E098
:100DE00047F6FF57394044F48057394382830184E2
:100DF000F0BD828B4FF6F3731A408283828B0A43D5
:100E000082837047F0B50C4615460022002100266B
:100E1000078C4FF6FF6C07EA0C070784828B018C66
:100E200027063E0C4FF60C773A401F0545EA174758
:100E30003A43BC4FB8420ED0BB4FB8420BD0B0F1D2
:100E4000804F08D0B94FB84205D0B94FB84202D050
:100E5000B84FB84206D14FF6FF57394046F4807775
:100E6000394305E04FF2FF57394044F48077394366
:100E700082830184F0BD028B4FF2FF331A4002835C
:100E8000028B0B0642EA134202837047F0B50C4610
:100E90001546002200210026078C4FF6EF7C07EA5A
:100EA0000C070784028B018C27053E0C40F6FF4798
:100EB0003A401F0742EA17422F0642EA1742994F6B
:100EC000B8420ED0984FB8420BD0B0F1804F08D046
:100ED000964FB84205D0964FB84202D0954FB842CF
:100EE00006D14FF6DF77394046F01007394305E069
:100EF0004FF65F77394044F010073943028301848D
:100F0000F0BD028B4FF6F3731A400283028B0A4343
:100F100002837047F0B50C46154600220021068C6E
:100F20004FF6FE773E400684028B018C4FF60C761E
:100F300032401E0545EA164632437A4EB0420ED084
:100F4000794EB0420BD0B0F1804F08D0774EB0420E
:100F500005D0774EB04202D0764EB04206D14FF661
:100F6000FD76314044F00106314305E04FF6F57659
:100F7000314044F00106314302830184F0BD70B575
:100F800005460C46674885420ED0674885420BD01F
:100F9000B5F1804F08D06548854205D06448854248
:100FA00002D06448854200D100E000BF208850B9DB
:100FB0002389A28861882846FFF7ACFFE18828468C
:100FC000FFF79FFF25E0208804280AD12389A28803
:100FD00061882846FFF75AFFE1882846FFF74BFF54
:100FE00017E0208808280AD12389A288618828462A
:100FF000FFF708FFE1882846FFF7FBFE09E0238999
:10100000A28861882846FFF7B9FEE1882846FFF7E5
:10101000AAFE70BD2DE9F04105460C4600260127C9
:10102000608808B9022600E00026A088012801D1C6
:10103000022700E001272088A0B92389A2886188BF
:101040002846FFF767FFE1882846FFF75AFF238904
:101050003A4631462846FFF719FFE1882846FFF750
:101060000AFF13E02389A28861882846FFF70EFF54
:10107000E1882846FFF7FFFE23893A463146284695
:10108000FFF748FFE1882846FFF73BFFBDE8F08106
:101090000A884B881A438B881A43CB881A430B89DA
:1010A0001A434B891A438B891A43A0F8442070478E
:1010B0004FF6FF71818000210180C1804180017263
:1010C00070470021018041808180C1800181418180
:1010D0008181C1817047002101804180012181808F
:1010E0000021C18001817047002101804180818001
:1010F000C180018141818181704721B1028842F024
:101100000102028004E002884FF6FE731A4002805A
:10111000704789B1B0F8442042F40042A0F844205E
:1011200010E00000002C01400034014000040040A9
:1011300000080040000C0040B0F84420C2F30E024A
:10114000A0F84420704710B51AB183890B438381FE
:1011500004E08389CC43A4B22340838110BD818203
:10116000704741EA0203A0F84830704710B51AB141
:1011700083890B43838104E08389CC43A4B2234059
:10118000838110BD01894FF6F872114001817047CB
:101190000A46002101894FF68F73194011430181DE
:1011A000704730B504460D4629462046FFF7F0FF4C
:1011B000208940F00700208130BD2DE9F041044630
:1011C0000D4616461F46602D06D13B46012231468C
:1011D0002046FFF75BFE05E03B46012231462046F4
:1011E000FFF798FE29462046FFF7D2FF208940F0FE
:1011F00007002081BDE8F08130B50C46002101894F
:10120000C9B21D0642EA154525432943018130BD77
:101210002DE9F04105460E46174698460024434600
:101220003A4631462846FFF7E7FF2C894FF6F8711A
:101230000C4044F007044FF68F710C4044F07004EA
:101240002C81BDE8F081F0B504460D4616461F46D8
:101250003B46324629462046FFF7CEFF208940F420
:1012600080402081F0BD0185828270470A460021BE
:1012700001884FF68F731940114301807047F0B514
:101280000C4615461E460021002200230189028BD0
:10129000038C4FF6F877394021434FF6FC473A402C
:1012A00040F201173A434FF6DD773B40370545EAF8
:1012B00017473B43018102830384F0BD0A460021A6
:1012C000018B4FF68F7319401143018370470A4613
:1012D0000021018B48F6FF731940130641EA1341C0
:1012E000018370470A460021818B4FF68F731940A6
:1012F0001143818370470A460021818B48F6FF73B2
:101300001940130641EA13418183704721B10288D5
:1013100042F08002028004E002884FF67F731A4098
:101320000280704721B1828842F00402828004E08A
:1013300082884FF6FB731A408280704721B1828801
:1013400042F00802828004E082884FF6F7731A4068
:101350008280704721B1828842F00102828004E0DD
:1013600082884FF6FE731A40828070470A46002139
:10137000018B4FF6F77319401143018370470A46FA
:101380000021018B4FF2FF731940130641EA13410C
:10139000018370470A460021818B4FF6F77319408D
:1013A0001143818370470A460021818B4FF2FF73FE
:1013B0001940130641EA1341818370470A46002110
:1013C000018B4FF6FB7319401143018370470A46A6
:1013D0000021018B4FF6FF331940130641EA1341F8
:1013E000018370470A460021818B4FF6FB73194039
:1013F0001143818370470A460021818B4FF6FF33EA
:101400001940130641EA1341818370470A460021BF
:10141000018B4FF67F7319401143018370470A46D1
:101420000021018BC1F30E01130641EA1341018330
:1014300070470A460021818B4FF67F731940114394
:10144000818370470A460021818BC1F30E01130688
:1014500041EA1341818370470A460021018C4FF60F
:10146000FD7319401143018470470A460021018C25
:101470004FF6F77319401143018470470A46002163
:10148000018C4FF6DF731940130541EA13410184C3
:1014900070470A460021018C4FF67F7319401305EF
:1014A00041EA1341018470470A460021018C4FF63E
:1014B000FF531940130641EA1341018470470A465D
:1014C0000021018C4FF2FF731940130641EA1341CA
:1014D000018470470A460021018C4DF6FF731940C4
:1014E000130741EA13410184704730B500230124FA
:1014F0008C40A3B2048CDD43ADB22C400484048C38
:1015000002FA01F5ADB22C43048430BD30B500239E
:1015100004248C40A3B2048CDD43ADB22C4004847F
:10152000048C02FA01F5ADB22C43048430BD70B5D1
:101530000346002000241846183001258D40ACB227
:101540001D8CE643B6B235401D8409B1082909D186
:1015500000EB6100056825F070050560056815431E
:1015600005600CE00D1FADB200EB6500056825F4C9
:10157000E04505600568160645EA1645056070BD3C
:1015800021B1028842F00202028004E002884FF694
:10159000FD731A400280704721B1028842F00402B4
:1015A000028004E002884FF6FB731A400280704705
:1015B00021B1828842F08002828004E082884FF666
:1015C0007F731A408280704702884FF6F7731A4083
:1015D000028002880A430280704782884FF68F7328
:1015E0001A40828082880A438280704702894FF6BF
:1015F000F8731A40028102890A4302817047028906
:101600004FF67F731A40028102890A4302817047B4
:101610008184704781857047818670470187704754
:1016200081877047A0F84010704702884FF6FF434B
:101630001A40028002880A43028070470146888E61
:1016400070470146088F70470146888F70470146F2
:10165000B1F8400070470146888C70470146088DFC
:10166000704702460020138A0B4201D0012000E09F
:1016700000207047CA430282704730B502460020FE
:1016800000230024158A05EA0103958905EA01046F
:1016900013B10CB1012000E0002030BDCA4302822A
:1016A0007047000010B50446FC48844209D101216E
:1016B0008803FFF7CEF800214FF48040FFF7C9F808
:1016C00032E0F748844209D101214804FFF7CEF8FF
:1016D00000214FF40030FFF7C9F825E0F1488442BB
:1016E00009D101218804FFF7C1F800214FF48020BF
:1016F000FFF7BCF818E0EC48844209D10121C80486
:10170000FFF7B4F800214FF40020FFF7AFF80BE02B
:10171000E648844208D101210805FFF7A7F8002117
:101720004FF48010FFF7A2F810BD2DE9F04786B006
:1017300005460E460024A24600BFA1460027B089F8
:1017400000B100BF2F462C8A4CF6FF700440F08891
:1017500004432C82AC894EF6F3100440B0883189E2
:101760000843718908430443AC81AC8A4FF6FF40BB
:101770000440B0890443AC8201A8FEF7E3FFC748E8
:10178000874202D1DDF810A001E0DDF80CA0A889A5
:1017900010F4004F08D00AEBCA0000EB0A103168C1
:1017A0004900B0FBF1F807E00AEBCA0000EB0A10B1
:1017B00031688900B0FBF1F86420B8FBF0F0040157
:1017C0002009642101FB1089A88910F4004F08D07A
:1017D000322000EBC900B0FBF1F000F00700044339
:1017E00008E0322000EB09106421B0FBF1F000F0BA
:1017F0000F0004432C8106B0BDE8F0874FF416516A
:10180000016000218180C18001810C214181002182
:101810008181704710B502460020108A4FF2FF0305
:1018200018400B884C8823438C882343CC8823435F
:101830001843108210BD0021018041808180C18049
:10184000704721B1828942F40052828104E082898A
:101850004DF6FF731A4082817047F0B503460024AD
:10186000002600250020A1F510676A3F00D100BFC7
:101870001846C1F3421401F01F06012707FA06F5C6
:10188000012C01D10C3004E0022C01D1103000E019
:1018900014301AB107682F43076002E00768AF43AE
:1018A0000760F0BD10B51AB1838A0B43838204E050
:1018B000838ACC43A4B22340838210BD028A4FF6B0
:1018C000F0731A400282028A0A43028270478289B8
:1018D0004FF2FF731A40828182890A4382817047E6
:1018E00021B1828942F00202828104E082894FF6AE
:1018F000FD731A4082817047028A4FF6DF731A40E7
:101900000282028A0A430282704721B1028A42F4AB
:101910008042028204E0028A4BF6FF731A40028280
:101920007047C1F308028280704701468888C0F37F
:1019300008007047818941F0010181817047028B65
:10194000D2B20283028B42EA012202837047028BE9
:1019500002F47F420283028B0A430283704721B163
:10196000828A42F02002828204E0828A4FF6DF738C
:101970001A408282704721B1828A42F0100282822C
:1019800004E0828A4FF6EF731A408282704721B1D9
:10199000828A42F00802828204E0828A4FF6F7735C
:1019A0001A408282704721B1828942F400428281CA
:1019B00003E08289C2F30E028281704721B1828ADC
:1019C00042F40062828204E0828A4FF2FF731A407E
:1019D00082827047828A4FF6FB731A408282828A23
:1019E0000A438282704721B1828A42F002028282D7
:1019F00004E0828A4FF6FD731A40828270470246E5
:101A00000020B1F5007F00D100BF13880B4201D048
:101A1000012000E00020704701F40072B2F5007F61
:101A200000D100BFCA430280704770B5024600244F
:101A3000002300250020A1F510666A3E00D100BFFA
:101A4000C1F3421501F01F03012606FA03F3012D2D
:101A500002D19689334006E0022D02D1168A334026
:101A600001E0968A33400C12012606FA04F4168827
:101A7000344013B10CB1012000E0002070BD10B55E
:101A800000220023A1F510646A3C00D100BF0A12B5
:101A900001249440A3B2DC43048010BD003801400F
:101AA0000044004000480040004C0040005000400E
:101AB00010B50446F848844208D101214015FEF7CC
:101AC000C8FE00216015FEF7C4FE17E0F34884420B
:101AD00008D101210015FEF7BCFE00212015FEF7FC
:101AE000B8FE0BE0EE48844208D10121C803FEF79E
:101AF000B0FE00214FF40040FEF7ABFE10BD30B544
:101B00000246002000235068E64C20400D790C6806
:101B100044EA0524204350609068E34C2040D1E91A
:101B200002542C434D7944EA450420439060D06A26
:101B300020F470000C7C641EE4B2234340EA03509E
:101B4000D06230BD00210160017141718160C160CE
:101B500001210174704721B1826842F00102826064
:101B600003E0826822F001028260704721B182683E
:101B700042F48072826003E0826822F480728260A4
:101B8000704710B50023CBB21AB144681C434460BF
:101B900002E044689C43446010BD816841F0080144
:101BA00081607047014600208A6812F0080F01D05A
:101BB000012000E000207047816841F0040181604D
:101BC0007047014600208A6812F0040F01D00120FE
:101BD00000E00020704721B1826842F4A0028260D8
:101BE00003E0826822F4A002826070470146002070
:101BF0008A6812F4800F01D0012000E000207047B5
:101C000010B50A4600210023416821F46041531EAB
:101C100041EA4331416010BD21B1426842F40062A3
:101C2000426003E0426822F4006242607047F0B50F
:101C300004460D4600200021092D11DDE068A5F1C4
:101C40000A0606EB4607072606FA07F18843A5F1C0
:101C50000A0606EB460603FA06F10843E0600CE0CC
:101C6000206905EB4507072606FA07F1884305EBCF
:101C7000450603FA06F108432061072A0FDA606B74
:101C8000561E06EB86071F2606FA07F18843561EE6
:101C900006EB860605FA06F10843606322E00D2A8A
:101CA0000FDA206BD61F06EB86071F2606FA07F110
:101CB0008843D61F06EB860605FA06F10843206323
:101CC00010E0E06AA2F10D0606EB86071F2606FA71
:101CD00007F18843A2F10D0606EB860605FA06F128
:101CE0000843E062F0BD21B1826842F48012826054
:101CF00003E0826822F48012826070470146C86C5B
:101D000080B2704769480068704721B1426842F468
:101D10008062426003E0426822F480624260704761
:101D200021B1426842F48052426003E0426822F4EA
:101D30008052426070470A460021816821F4E041E8
:101D400011438160704721B1826842F40042826091
:101D500003E0826822F400428260704721B1826809
:101D600042F40212826003E0826822F4021282606E
:101D70007047014600208A6812F4001F01D001203C
:101D800000E000207047F0B5044615460020002210
:101D90000026092911DDE068A1F10A0707EB470CCD
:101DA000072707FA0CF29043A1F10A0707EB470750
:101DB00003FA07F21043E0600CE0206901EB410CEC
:101DC000072707FA0CF2904301EB410703FA07F2E9
:101DD00010432061A06BC0F30156EF1C06F1010C0B
:101DE000A7EB0C0707EB870C1F2707FA0CF29043B1
:101DF000EF1C06F1010CA7EB0C0707EB870701FAB4
:101E000007F21043A063F0BD10B50A46002100237D
:101E1000816B21F44011531E41EA0351816310BDCF
:101E200010B5002303460B441A6010BD0246002380
:101E3000134601F128000344186880B270470A462F
:101E4000002141681A4B19401143416070474162BB
:101E5000826270470A460021416821F01F01114348
:101E60004160704738B11349096841F40001124AD2
:101E7000C2F8081406E00F49096821F400010E4A6F
:101E8000C2F8081470470246002013680B4201D0C4
:101E9000012000E00020704700240140002801409C
:101EA000003C0140FFFEF0FFFDF7F1FF4C24014034
:101EB000FFFD3FFF0824014000200140CA430260AB
:101EC000704770B502460020002300240B125568AD
:101ED000CEB205EA060415681D4202D00CB10120FD
:101EE00000E0002070BD00220A12D3430360704757
:101EF00001460020FF4A106800F0380008431060D7
:101F00007047FC49096821F00801FA4A116011463E
:101F10000968014311607047F649096821F0100112
:101F2000F44A116011460968014311607047F24894
:101F3000F0494860F14848607047EF48ED49486013
:101F4000EE4848607047EB48006940F08000E9497E
:101F500008617047E748006940F08000E549086182
:101F600070470420E349C96801F00101012901D14A
:101F700001200EE0DF49C96811F0040F01D00220F2
:101F800007E0DC49C96811F0100F01D0032000E020
:101F90000420704700B502460423FFF7E2FF034622
:101FA00003E0FFF7DEFF0346521E012B01D1002A9A
:101FB000F7D102B90523184600BD30B50446042503
:101FC0004FF43020FFF7E6FF0546042D17D1C9482E
:101FD000006940F00200C749086108464461006991
:101FE00040F0400008614FF43020FFF7D3FF054672
:101FF000C048006941F6FD710840BE4908612846A5
:1020000030BD10B504244FF43020FFF7C3FF044661
:10201000042C16D1B748006940F00400B5490861A6
:102020000846006940F0400008614FF43020FFF797
:10203000B1FF0446AF48006941F6FB710840AD4965
:102040000861204610BD00B502460423FFF789FF52
:10205000034603E0FFF785FF0346521E012B01D123
:10206000002AF7D102B90523184600BD10B5042493
:102070004FF43020FFF7E7FF0446042C16D19D48AB
:10208000006940F004009B4908610846006940F07F
:10209000400008614FF43020FFF7D5FF0446954813
:1020A000006941F6FB71084092490861204610BD65
:1020B00000209049C96911F0020F01D0012000E011
:1020C0000020704730B5A5250424FFF7F1FF00B1CB
:1020D00000254FF43020FFF75DFF0446042C3BD170
:1020E000854884498860854888600846006940F0D2
:1020F000200008610846006940F0400008614FF484
:102100003020FFF747FF0446042C1CD179480069B2
:1021100041F6DF710840774908610846006940F0E0
:1021200010000861764805804FF40050FFF732FF39
:102130000446052C10D06F48006941F6EF71084045
:102140006C49086108E0052C06D06A48006941F630
:10215000EF71084067490861204630BDF0B504467C
:102160000D4604260027F002FFF714FF0646042E52
:1021700022D16048006940F001005E490861258075
:10218000F002FFF707FF0646042E0ED1A71C280C0D
:102190003880F002FFF7FEFE06465648006941F619
:1021A000FE7108405349086106E05248006941F653
:1021B000FE7108404F4908613046F0BD70B50446D5
:1021C0000D460426F002FFF7E5FE0646042E11D167
:1021D0004848006940F00100464908612580F00246
:1021E000FFF7D8FE06464348006941F6FE710840F5
:1021F00040490861304670BD70B505460E4604245E
:10220000E002FFF7C7FE0446042C17D13A483949CB
:1022100088603A4888600846006940F0100008610C
:102220002E80E002FFF7B6FE0446052C06D03148AA
:10223000006941F6EF7108402E490861204670BDE3
:102240002DE9F04304464FF6FF763746B046B146D7
:102250000425E443E6B2C4F30727C4F307484FEA72
:102260001469E802FFF796FE0546042D3ED1224888
:1022700020498860214888600846006940F01000C5
:102280000861FF2E06D01F4806804FF40050FFF76C
:1022900081FE0546042D08D1FF2F06D01A4807807D
:1022A0004FF40050FFF776FE0546042D09D1B8F132
:1022B000FF0F06D01548A0F80C88E802FFF76AFE69
:1022C0000546042D09D1B9F1FF0F06D00F48A0F83B
:1022D0000E98E802FFF75EFE0546052D06D005487C
:1022E000006941F6EF710840024908612846BDE8DF
:1022F000F08300000020024023016745AB89EFCD49
:1023000000F8FF1F08F8FF1F0AF8FF1F00F0FF1F6B
:1023100030B5054604244FF43020FFF73BFE044659
:10232000042C41D15F486049886060488860084655
:10233000006940F0200008610846006940F0400054
:1023400008614FF43020FFF725FE0446042C22D10B
:102350005548006941F6DF71084053490861084655
:10236000006940F0100008611DB10020504908804C
:1023700002E0A5204E4908804FF43020FFF70AFE06
:102380000446052C10D04848006941F6EF7108401A
:102390004549086108E0052C06D04348006941F62C
:1023A000DF71084040490861204630BDF0B5054660
:1023B0000E46174604243B483B4988603B488860EA
:1023C000E002FFF7E7FD0446042C19D13648006906
:1023D00040F010003449086147F0F80030432843CA
:1023E000344908804FF40050FFF7D4FD0446052C13
:1023F00006D02D48006941F6EF7108402A4908616E
:102400002046F0BD2848C069800870472648006A09
:10241000704700202449096811F0200F01D00120E5
:1024200000E00020704729B11F4A126902431E4B89
:102430001A6104E01C4A126982431B4B1A617047FF
:1024400001460020012908D1174AD26912F0010F74
:1024500001D0012008E0002006E0134AD2680A42B9
:1024600001D0012000E0002070470F49C86070478C
:1024700004200D49C96801F00101012901D10120A1
:102480000EE00949C96811F0040F01D0022007E0ED
:102490000549C96811F0100F01D0032000E00420A5
:1024A000704700002301674500200240AB89EFCD53
:1024B00000F8FF1F02F8FF1F00210020674A126882
:1024C00042F48032654B1A6000BF644A126802F41D
:1024D0000030491C10B9B1F5A06FF6D15F4A1268FF
:1024E00012F4003F01D0012000E00020012842D179
:1024F0005B4A126842F01002594B1A601A46126881
:1025000022F003021A601A46126842F002021A60B0
:10251000524A5268514B5A601A4652685A601A46DB
:10252000526842F480625A601A46526822F47C1261
:102530005A601A46526842F4E8125A601A46126803
:1025400042F080721A6000BF444A126812F0007FA5
:10255000FAD0424A526822F00302404B5A601A46AF
:10256000526842F002025A6000BF3C4A526802F0D0
:102570000C02082AF9D1704710B5FFF79DFF10BD76
:1025800010B53648006840F001003449086008463C
:10259000406834490840314948600846006832497B
:1025A00008402E4908600846006820F48020086032
:1025B0000846406820F4FE0048604FF41F00886021
:1025C000FFF7DAFF4FF000602849086010BD10B532
:1025D000002100200022214B5B6803F00C0121B197
:1025E000042906D0082928D107E0214B214C23607B
:1025F00027E01F4B1F4C236023E0184B5B6803F45C
:102600007010164B5B6803F48032022303EB90409A
:1026100022B9194B4343174C23600DE00F4B5B6805
:1026200013F4003F04D0144B4343124C236003E0E7
:102630000F4B43430F4C236003E00D4B0D4C2360C5
:1026400000BF00BF054B5B68C3F303130B4CE15C99
:10265000084B1B68CB40074C236010BD00100240A4
:10266000002002400000FFF8FFFFF6FE08ED00E04A
:1026700000127A001400002000093D00180000201C
:1026800010B53B48008800B110BD4FF47A7038494E
:10269000088038480088401C3649088001F00EFD4B
:1026A000354908803548007808B101F0AEFD34485E
:1026B0000078C043324908700846007828B14FF4CA
:1026C00000613048FDF7A5FE04E04FF400612D489D
:1026D000FDF79DFE00BFD7E700F0E0F800F000F93D
:1026E000002000F036F9142000F0FAFB26A000F0DC
:1026F000D8F927A000F0D5F9012000F02AF914201C
:1027000000F0EEFB02F040F800F06DF900F07BFA0B
:1027100000F0E0F901F088FC00F001FB00F036FB6E
:1027200001F091FB0A2000F0DBFB00F077FF01F0E5
:10273000ABFF00F07EFB00F0E3FB10211748FDF734
:1027400068FE4FF0E020006940F001004FF0E0210A
:1027500008610CE0FFF794FF0548408838B9322043
:102760000349488001F0CEFC0D4801F060FDF1E71F
:10277000280200202800002030000020E80000206F
:102780002A0000200008014041540D0A000000000A
:1027900041542B42415544380D0A0000000C0140C1
:1027A000A8010020704700BFFEE700BFFEE700BFA2
:1027B000FEE700BFFEE770477047704710B500F0B6
:1027C00025FB30480078401C2E4908702E480078C0
:1027D000401C2D49087000F0E9FD2A4800780528C2
:1027E00005DB00202749087000F0D1FC28E02548CF
:1027F0000078012802D100F079FF21E0214800781B
:10280000022802D100F0AAFB1AE01E480078032833
:1028100010D11E480078401C1C49087008460078FA
:102820000A280DDB00F0F0FC00201849087016495A
:10283000087005E013480078042801D100F019FC65
:1028400010BD10B540F225511148FFF7EEF8B8B1B0
:1028500010480078802802DB00200E4908700C48E0
:10286000FFF763F8C1B20B4802780078401C094BAF
:1028700018700948815440F225510548FFF7FFF8C8
:1028800010BD000051000020530000205200002025
:102890000048004032000020A801002008B50121B6
:1028A0000520FDF7BCFF01210B48FDF7D4FD4FF4D7
:1028B000C050ADF8000003208DF8020010208DF804
:1028C000030069460548FDF7F7FC4FF4C051034883
:1028D000FDF79DFD08BD000000023000000801402A
:1028E00000B585B0012144F20400FDF798FF4FF4D4
:1028F0000070ADF8100018208DF8130003208DF83B
:10290000120004A96F48FDF7D7FC4FF48060ADF8C2
:10291000100004208DF8130004A96A48FDF7CCFCD0
:102920004FF4E13000900020ADF80400ADF806004F
:10293000ADF80800ADF80C000C20ADF80A006946AF
:102940006148FEF7F2FE01215F48FEF77AFF05B00D
:1029500000BD10B586B0044601218804FDF76CFF68
:1029600001210820FDF75BFF4FF48060ADF81400F3
:1029700018208DF8170003208DF8160005A953487C
:10298000FDF79AFC4FF40060ADF8140004208DF8B8
:10299000170005A94D48FDF78FFC1CB94FF41650E0
:1029A000019004E0012C02D14FF4E13001900020AD
:1029B000ADF80800ADF80A00ADF80C00ADF8100055
:1029C0000C20ADF80E0001A94148FEF7AEFE012231
:1029D00040F225513E48FEF740FF01213C48FEF7FA
:1029E00030FF06B010BD08B54FF4E060FDF788FB7E
:1029F00027208DF8000000208DF8010003208DF8BD
:102A0000020001208DF803006846FDF77EFB08BD3B
:102A100010B5044621462C48FEF783FF00BF402135
:102A20002948FEF7ECFF0128F9D110BD70B5044626
:102A30000D46002605E014F8010BFFF7E9FF701CB6
:102A400086B2AE42F7DB70BD70B50446204604F096
:102A500048FE86B2002505E014F8010BFFF7D8FF09
:102A6000681C85B2B542F7DB70BD10B5044621463F
:102A70001748FEF756FF00BF40211548FEF7BFFF7D
:102A80000128F9D110BD70B504460D46002605E0B9
:102A900014F8010BFFF7E9FF701C86B2AE42F7DBBA
:102AA00070BD70B50446204604F01BFE86B20025BA
:102AB00005E014F8010BFFF7D8FF681C85B2B5429A
:102AC000F7DB70BD0008014000380140000C0140F8
:102AD0000048004008B501210820FDF7A0FE4FF492
:102AE0007040ADF8000010208DF8030003208DF831
:102AF00002006946C148FDF7DFFB4FF47041BF4853
:102B0000FDF785FC08BD08B501210846FDF794FED8
:102B100001210420FDF783FE0C20ADF800001820F1
:102B20008DF8030003208DF802006946B448FDF7D4
:102B3000C3FB08BD30B587B00025002440F2E73064
:102B4000ADF814000320ADF810000020ADF8160019
:102B5000ADF8120004A94FF08040FDF79FFF602000
:102B6000ADF800000120ADF80200ADF806500020DD
:102B7000ADF8080069464FF08040FEF757F808218D
:102B8000C806FEF707FC0120ADF80200ADF80640CC
:102B900069468007FEF791F80821C806FEF703FC96
:102BA00001218807FEF7B2FB01218807FEF7A5FA8D
:102BB00007B030BD2DE9FF4104460D4627462E469D
:102BC0006020ADF800000120ADF80200ADF80670FD
:102BD0000020ADF8080069464FF08040FEF726F867
:102BE0000821C806FEF7D6FB0120ADF80200ADF8BB
:102BF000066069468007FEF760F80821C806FEF700
:102C0000D2FBBDE8FF8110B5FFF77DFFFFF792FF14
:102C100010BD00B587B001210220FDF70DFE012196
:102C20000420FDF7FCFD6846FDF7CFFBC020ADF8A2
:102C3000000004208DF8030069467148FDF73CFB55
:102C40007048FDF757FE04A8FEF732FA0020ADF8F1
:102C500010004FF6FF70ADF814000020ADF816001C
:102C6000ADF8120004A96748FDF718FF00231A46C3
:102C700003216448FEF703FB01A8FEF72CFA0020AD
:102C8000ADF80C0001A95F48FEF779F901215D4814
:102C9000FEF733FA07B000BD00B587B0012104206C
:102CA000FDF7CAFD01210820FDF7B9FD6846FDF7D3
:102CB0008CFBC020ADF8000004208DF803006946AD
:102CC0004E48FDF7F9FA5048FDF714FE04A8FEF748
:102CD000EFF90020ADF810004FF6FF70ADF81400CA
:102CE0000020ADF81600ADF8120004A94648FDF723
:102CF000D5FE00231A4603214348FEF7C0FA01A877
:102D0000FEF7E9F90020ADF80C0001A93E48FEF7F6
:102D100036F901213C48FEF7F0F907B000BD1FB5B8
:102D200001210420FDF77BFD8020ADF80C0004207C
:102D30008DF80F0003208DF80E0003A93048FDF731
:102D4000BBFA01210220FDF777FD2E48FDF7D2FDE9
:102D50004FF6FF70ADF804000020ADF80000ADF8AC
:102D60000600ADF8020069462648FDF797FE0023ED
:102D70001A4660212348FEF720FA00212148FEF779
:102D800047FC01211F48FEF7B8F91FBD1FB50121FF
:102D90000820FDF744FD8020ADF80C0004208DF8DC
:102DA0000F0003208DF80E0003A91448FDF784FAE4
:102DB00001210420FDF740FD1348FDF79BFD4FF670
:102DC000FF70ADF804000020ADF80000ADF806007B
:102DD000ADF8020069460C48FDF760FE00231A4674
:102DE00060210948FEF7E9F900210748FEF710FCC9
:102DF00001210548FEF781F91FBD0000000C0140CC
:102E000000080140000400400008004000200DE0E0
:102E10002E4931F81010002906DD2C4931F8101028
:102E2000491E2A4A22F81010411CC8B20528EFDBBF
:102E30007047274909684FF47A72B1FBF2F0B0F19C
:102E4000807F01D301211CE020F07F41491E4FF01B
:102E5000E022516100BF5117002905DA0F21090155
:102E60001C4A0B23D15404E00F2109011A4A5317BD
:102E7000D15400BF00214FF0E02291610721116180
:102E8000002109B100BFFEE74FF0E020006920F00B
:102E900001004FF0E02108617047104908604FF0D1
:102EA000E021096941F001014FF0E022116100BF0A
:102EB0000A4909680029FBD170470848006820B119
:102EC00006480068401E0549086070472802002037
:102ED0001400002018ED00E000E400E034000020C1
:102EE000002107E042F6E06100BF0A00A1F1010302
:102EF00099B2FAD10200A0F1010398B2F2D1704761
:102F00000020FF490880FF490880FF490860FF4909
:102F10000860FF490860FF490860FF490860FF49F1
:102F20000860FF490860FF490860FF490860FF49E1
:102F30000860FF490860FF490860FF490860FF49D1
:102F40000860FF490860FF490860FF490860FF49C1
:102F50000870FF490870FF49087070472DE9F0417B
:102F6000FD49FE48006804F045FCEE490860FC4954
:102F70008868FC4904F07AFC0646FB49B1F9000078
:102F800004F0CAFD0746314604F03AFC0446F44812
:102F90000168E448006804F033FC0546214604F06B
:102FA000D7FBE3490860BDE8F0812DE9F041044614
:102FB0000D46002C0CDA4FF48041EC48FDF727FA5F
:102FC0004FF40041E948FDF724FA604204B209E0F9
:102FD0004FF40041E548FDF71AFA4FF48041E34809
:102FE000FDF717FA002D0CDA4FF48051DF48FDF79A
:102FF0000EFA4FF40051DD48FDF70BFA684205B2B6
:1030000009E04FF40051D948FDF701FA4FF480511F
:10301000D648FDF7FEF9AFB2A6B2B7F57A7F01DB6D
:1030200040F2E737B6F57A7F01DB40F2E736394602
:103030004FF08040FEF7F4FA31464FF08040FEF743
:10304000F1FACB49B748006804F012FE05D3C9492C
:10305000B448006804F002FE09D200214FF080401D
:10306000FEF7DEFA00214FF08040FEF7DBFABDE804
:10307000F08170B5AD480168AD48006804F0BAFB56
:103080000446AE480168204604F062FBAA49086085
:10309000A6480168A648006804F0ACFB0446A748AF
:1030A0000168204604F0A6FBA24908600021A2485E
:1030B000006804F0DDFD07D200219F48006804F09D
:1030C00047FB9D4908600CE000219B48006804F024
:1030D000C5FD06D200219848006804F08BFB964994
:1030E000086000219348006804F0C2FD07D2002167
:1030F0009048006804F02CFB8E4908600CE0002129
:103100008C48006804F0AAFD06D2002189480068B6
:1031100004F070FB874908608748006804F028FDC8
:1031200000B2B0F57A7F02DB934883490860824899
:10313000006804F01DFD00B210F57A7F02DC8F48B4
:103140007D4908607B48006804F012FD00B2B0F5CC
:103150007A7F02DB8848774908607648006804F087
:1031600007FD00B210F57A7F02DC844871490860DF
:103170007048006804F0FCFC04B26F48006804F07A
:10318000F7FC05B221462846FFF70FFF70BD10B5CA
:103190007B48FEF760FA00B25A4908807948FEF78A
:1031A0005AFA00B2564908800020774908804FF04B
:1031B0008041A1F8240801465F48006804F058FDEA
:1031C00005D350480088404200B24E490880002193
:1031D0005848006804F04CFD05D349480088404237
:1031E00000B2474908804B4800684649B1F90010D1
:1031F000084448490860464800684149B1F9001050
:1032000008444349086010BD2DE9FE4F4149096853
:103210003F4A1268881804F08DFC064600225B4B7A
:1032200004F009FC044604F0FDFC3C490860002061
:1032300037490860374908603848006804F0DCFC0A
:1032400004460022514B04F0F6FB06460F46324876
:10325000006804F0D1FC044600224C4B04F0EBFB68
:10326000804632463B4604F041FB824604F0DAFCDD
:103270002A490860084600682749086044480068F1
:10328000009026480168009804F0B4FA0090414884
:103290000168009804F0B4FA02903E484168009832
:1032A00004F0AEFA01901E480199006804F050FA4B
:1032B0001B490860224801681948006804F048FA70
:1032C000174908600846006804F052FC00B2B0F5E7
:1032D0007A7F02DB2848124908601148006804F030
:1032E00047FC00B210F57A7F02DC24480C490860E4
:1032F00029480068294908600948016802984FE098
:1033000076000020740000207C000020780000205F
:103310008400002080000020900000208800002011
:103320009400002070000020A80000205800002019
:10333000640000206C000020680000209C00002039
:1033400098000020A0000020A400002051000020D0
:10335000520000205300002000004040CC0000201C
:10336000380000200000C842D8000020000C0140B6
:1033700000008C4200008CC200C0794400C079C4B7
:103380000004004000080040240400400000E03F2A
:103390008C00002044000020600000205C00002021
:1033A00004F0D6F98A490860BDE8FE8F2DE9F041A6
:1033B000884801688648006804F01CFA064686487A
:1033C0000078401C04F0A8FB0746314604F018FAC8
:1033D0000546824904F04AFA04467E4801682046C0
:1033E00004F0B6F97E490860BDE8F0812DE9FC5F84
:1033F0008146884614461D460C9E2146404604F0F0
:103400002DFC17D22946304604F0F4F941460190CC
:10341000204604F0EFF90090019904F027FA824663
:103420004146484604F0E6F98346514604F01EFA48
:10343000074616E02946304604F0DCF9834621466B
:10344000404604F0D7F95946009004F00FFA82463E
:103450004146484604F0D1F95146019004F006FA7D
:1034600007463146384604F003FC01D2374605E0F2
:103470002946384604F0F2FB00D22F463846BDE814
:10348000FC9F38B504463CB90020564908605649AF
:103490000860564908609AE0062C4CD10021544837
:1034A000006804F0E5FB0CD2524B009300234FF070
:1034B0007E5219464E480068FFF798FF4949086058
:1034C00012E000214A48006804F0C8FB0CD2494BC6
:1034D00000930023484A194645480068FFF786FFD5
:1034E00080F000403F49086000214448006804F033
:1034F000BFFB0CD2424B009300234FF07E52194683
:103500003E480068FFF772FF374908605FE000211E
:103510003A48006804F0A2FB59D2394B00930023CB
:10352000354A194635480068FFF760FF80F00040D3
:103530002D4908604BE0052C49D100212F48006837
:1035400004F096FB0BD22F4B009300232E4A194612
:103550002A480068FFF74AFF2249086012E000216C
:103560002648006804F07AFB0CD2264B0093002317
:10357000264A194621480068FFF738FF80F00040CE
:103580001849086000211A48006804F071FB0BD24A
:103590001F4B009300231F4A194615480068FFF788
:1035A00025FF1149086012E000211148006804F06D
:1035B00055FB0CD2164B00930023174A19460C48B2
:1035C0000068FFF713FF80F000400749086038BD2E
:1035D000600000205C0000205300002000004842F2
:1035E00058000020980000209C0000208C00002043
:1035F000F00000200000A042000080BFEC0000208E
:103600000000204300007A430000A0410000A0C158
:103610000000484300002042000020C270B5002492
:1036200001F066FD0446C4BB79A0FFF70DFA7820CF
:1036300001F0C1F918B97FA0FFF706FA02E085A0F2
:10364000FFF702FA782001F0A3FB18B98CA0FFF76E
:10365000FBF902E093A0FFF7F7F9642001F079FC91
:1036600018B99CA0FFF7F0F902E0A4A0FFF7ECF96D
:1036700003F046F818B9AAA0FFF7E6F902E0B5A0F2
:10368000FFF7E2F9C24803F02CFF054603F042F8C9
:1036900020B9C0A0FFF7D8F903E026E0C7A0FFF7E4
:1036A000D3F940F2731003F08CFC18B9CFA0FFF7E8
:1036B000CBF902E0D6A0FFF7C7F9642003F0FAF9CE
:1036C00018B9DFA0FFF7C0F902E0E6A0FFF7BCF9E8
:1036D00003F01BFF012002F059FD18B9ECA0FFF721
:1036E000B3F902E0F3A0FFF7AFF970BD2DE9F04F99
:1036F00089B0FB4BFB4ACDE90023FB4BFB4AFC495D
:10370000FC4803F0BDFDF748008810F4807F7DD0B1
:10371000F649086804F000FA04464FF09D4104F0B1
:10372000A5F8F5490860F149486804F0F5F9044640
:103730004FF09D4104F09AF8F0490860EB49886821
:1037400004F0EAF904464FF09D4104F08FF8EC498B
:103750000860E649C86804F0DFF904464FF09D416F
:1037600004F084F8E7490860E34801684FF08040BE
:1037700004F046F80690E2480168069804F040F824
:103780008246DE4801684FF0404004F039F8069068
:10379000DC480168069804F033F88346514603F08C
:1037A000D7FF079004F028FA804605F095FB0646FF
:1037B0004FF06632D44B04F03EF9044604F032FA7E
:1037C000D2490860CE4801684FF0804004F018F8F4
:1037D0000390CB480168039804F012F88246C7486A
:1037E00001684FF0404004F00BF80390C3480168B3
:1037F000039804F005F88346514603F0FBFF814629
:103800004FF07E5103F0A4FF804681E108E2000002
:103810006D707520696E697469616C697A6174692B
:103820006F6E20636F6D706C6574652E2E2E2E2E5C
:103830002E0A20006D70755F7365745F73656E731B
:103840006F7220636F6D706C657465202E2E2E2E46
:103850002E2E0A006D70755F7365745F73656E73ED
:103860006F7220636F6D65206163726F7373206583
:1038700072726F72202E2E2E2E2E2E0A0000000045
:103880006D70755F636F6E6669677572655F666997
:10389000666F20636F6D706C657465202E2E2E2E02
:1038A0002E2E0A006D70755F636F6E6669677572A4
:1038B000655F6669666F20636F6D65206163726F17
:1038C0007373206572726F72202E2E2E2E2E2E0A8A
:1038D000000000006D70755F7365745F73616D70DB
:1038E0006C655F7261746520636F6D706C65746583
:1038F000202E2E2E2E2E2E0A000000006D70755FD9
:103900007365745F73616D706C655F72617465205F
:103910006572726F72202E2E2E2E2E2E0A0000003F
:10392000646D705F6C6F61645F6D6F74696F6E5F03
:103930006472697665725F6669726D77617265201F
:10394000636F6D706C657465202E2E2E2E2E2E0AE0
:1039500000000000646D705F6C6F61645F6D6F7478
:10396000696F6E5F6472697665725F6669726D77A2
:1039700061726520636F6D65206163726F73732080
:103980006572726F72202E2E2E2E2E2E0A000000CF
:10399000AC000020646D705F7365745F6F72696561
:1039A0006E746174696F6E20636F6D706C657465A1
:1039B000202E2E2E2E2E2E0A00000000646D705F29
:1039C0007365745F6F7269656E746174696F6E2080
:1039D000636F6D65206163726F7373206572726FC0
:1039E00072202E2E2E2E2E2E0A000000646D705F87
:1039F000656E61626C655F66656174757265206392
:103A00006F6D706C657465202E2E2E2E2E2E0A0082
:103A1000646D705F656E61626C655F66656174752B
:103A2000726520636F6D65206163726F73732065CB
:103A300072726F72202E2E2E2E2E2E0A0000000083
:103A4000646D705F7365745F6669666F5F726174E1
:103A50006520636F6D706C657465202E2E2E2E2E82
:103A60002E0A0000646D705F7365745F6669666F2F
:103A70005F7261746520636F6D65206163726F733F
:103A800073206572726F72202E2E2E2E2E2E0A003B
:103A90006D70755F7365745F646D705F737461746E
:103AA0006520636F6D706C657465202E2E2E2E2E32
:103AB0002E0A00006D70755F7365745F646D705FD2
:103AC000737461746520636F6D65206163726F73D9
:103AD00073206572726F72202E2E2E2E2E2E0A00EB
:103AE000E6000020E4000020D40000203402002082
:103AF000DE000020D8000020B8000020BC0000201C
:103B0000C0000020C400002066A64C40C800002071
:103B100004F072F8CDE90401434801684FF0804099
:103B200003F06EFE834641480168584603F068FE84
:103B300081463F4801684FF0804003F061FE8346B4
:103B40003C480168584603F05BFE8246494603F054
:103B5000FFFD804604F050F80446DDE9042305F03B
:103B60000DFC4FF06632344BCDE9060103F063FFE4
:103B7000064604F057F8314908602E48016800688D
:103B800003F03EFE03902A480168006803F038FE07
:103B9000029026480168006803F032FE83462248FE
:103BA0000168006803F02CFE5946019003F0D0FD37
:103BB0008246029903F01EFE8146039903F01AFE25
:103BC000804604F019F804460D461A480168164864
:103BD000006803F015FE8246154801681348006826
:103BE00003F00EFE8346514603F0B2FD81464FF0CE
:103BF000804103F005FE804603F0FEFF06462246A4
:103C00002B4605F0BBFB4FF066320B4BCDE90401B0
:103C100003F011FFCDE9060104F004F8084908603B
:103C200009B0BDE8F08F0000B8000020BC00002003
:103C3000C0000020C400002066A64C40CC0000203C
:103C4000D0000020072000E0401E0028FCD1704773
:103C500010B54FF40070E34908604FF48070E249FA
:103C6000C1F8100CFFF7EEFFE048006808B901202A
:103C700000E0002010F4007F01D0002010BD4FF4C0
:103C80000070DB490860FFF7DDFFD748D0F8080C6B
:103C900010F4007F01D00020F0E74FF40070D44909
:103CA0000860FFF7CFFF0120E8E710B54FF4807000
:103CB000CF490860FFF7C6FF4FF40070CA49C1F84A
:103CC000140CFFF7BFFF4FF48070C6490860FFF780
:103CD000B9FF4FF40070C449C1F8100CFFF7B2FFF0
:103CE00010BD10B54FF48070C1490860FFF7AAFFFE
:103CF0004FF40070BC49C1F8140CFFF7A3FF4FF458
:103D00008070B8490860FFF79DFF4FF48070B64996
:103D1000C1F8140CFFF796FF10BD10B54FF480707A
:103D2000B3490860FFF78EFF4FF40070AE49C1F849
:103D3000100CFFF787FF4FF48070AA490860FFF767
:103D400081FF4FF48070A849C1F8140CFFF77AFF87
:103D500010BD10B54FF48070A5490860FFF772FFE1
:103D60004FF40070A049C1F8100CFFF76BFF4FF43F
:103D700080709C490860FFF765FF9B48D0F8080CED
:103D800010F4007F06D04FF48070994908604FF01E
:103D9000000010BD4FF48070954908604FF001009D
:103DA000F7E770B5044608251BE04FF48070904992
:103DB0000860FFF747FF14F0800F04D04FF4007045
:103DC0008849086003E04FF4007089490860600684
:103DD000040EFFF737FF4FF4807082490860FFF749
:103DE00031FF2800A5F10101CDB2DED14FF4807082
:103DF0007F49086070BD70B508250024A801794985
:103E0000086015E06006040E4FF480707849086081
:103E1000FFF718FF4FF480707349C1F8100CFFF7DB
:103E200011FF7248006810F4007F01D044F00104D3
:103E30002800A5F10101CDB2E4D14FF480706C49A6
:103E40000860204670BD08B501210820FCF7E7FC9A
:103E50004FF44070ADF8000002208DF802001420ED
:103E60008DF80300694661480838FCF725FA08BD5B
:103E70002DE9F04105460E4617469846FFF7E8FE45
:103E800010B90020BDE8F081002141EA4501C8B227
:103E9000FFF787FFFFF75DFF18B9FFF706FF002068
:103EA000F0E73046FFF77DFFFFF753FF00240BE0FC
:103EB00018F80400FFF775FFFFF74BFF18B9FFF77D
:103EC000F4FE0020DEE7641CBC42F1DBFFF7EDFEF0
:103ED0000120D7E72DE9F04104460D4616461F465E
:103EE0003B46324629462046FFF7C2FF10B100206C
:103EF000BDE8F0814FF0FF30FAE72DE9F0410546CB
:103F00000F4614461E46FFF7A3FE10B90020BDE879
:103F1000F081002141EA4501C8B2FFF742FFFFF7F7
:103F200018FF18B9FFF7C1FE0020F0E73846FFF789
:103F300038FFFFF70EFFFFF78BFE012101EB450174
:103F4000C8B2FFF72EFFFFF704FF0CE0FFF753FFA7
:103F50003070012C02D1FFF7E0FE01E0FFF7C1FE57
:103F6000761C601EC4B2002CF0D1FFF79EFE01202B
:103F7000CDE72DE9F04104460D4616461F463B4667
:103F8000324629462046FFF7B8FF10B10020BDE8B1
:103F9000F0814FF0FF30FAE770B504460D46164643
:103FA000FFF756FE08B9002070BD002141EA440128
:103FB000C8B2FFF7F6FEFFF7CCFE18B9FFF775FEA3
:103FC0000020F1E72846FFF7ECFEFFF7C2FE30467F
:103FD000FFF7E7FEFFF7BDFEFFF767FE0120E3E70F
:103FE00000207047100C014000000140080C014007
:103FF000140C0140014605E0002001E0421CD0B253
:104000000A28FBDB0A00A1F10101F5D1704710B5C8
:10401000044603E04FF47A70FFF7ECFF2000A4F1B0
:104020000104F7D110BD704700B587B001214FF4EE
:104030000170FCF7F4FB4FF40040FCF758FB102034
:10404000ADF8040000208DF8070001A92948FCF70D
:1040500033F9002002908DF80C0001208DF80D003E
:104060004FF4602004900020059004208DF8180083
:1040700002A92148FDF743FD0523012204211E4822
:10408000FDF7D5FD01211C48FDF765FD1A48FDF738
:1040900084FD00BF1848FDF785FD0028FAD11648B9
:1040A000FDF78AFD00BF1448FDF78BFD0028FAD10B
:1040B00001211148FDF78FFD07B000BD2DE9F04744
:1040C0004FF00008C1460C48FDF718FE81464846EF
:1040D00003F041FD0446094A094B03F0ACFC0646D7
:1040E00003F0A0FD8046404603F05BFD80B2BDE8D2
:1040F000F08700000008014000240140CFF753E39F
:10410000A59BB43F2DE9F0418AB0F549F548006818
:1041100003F01EFB804603F06FFD04460D46F24897
:10412000B0F900001E2190FBF1F000F1B406EF4859
:10413000B0F90200404240F21D1190FBF1F000F195
:10414000B40733463A46EAA102A8CDE9004504F097
:10415000DDF902A8FEF7A5FC0AB0BDE8F0812DE963
:10416000F0478CB08046B8F1000F1BD1E449886855
:1041700003F042FD04460D46E149486803F03CFD6A
:1041800006460F46DE49086803F036FD81460246C2
:104190000B46DCA104A8CDE90067CDE9024504F097
:1041A000B5F91DE0B8F1010F1AD1DB49886803F0B9
:1041B00023FD04460D46D849486803F01DFD064618
:1041C0000F46D549086803F017FD814602460B46A5
:1041D000D2A104A8CDE90067CDE9024504F096F923
:1041E00004A8FEF75EFC0CB0BDE8F08700B589B00E
:1041F000CF4B0093CF4BD04AD0A101A804F086F951
:1042000001A8FEF74EFC09B000BD00B589B0CF484B
:10421000008800EB80004200CD480388CDA101A8B2
:1042200004F074F901A8FEF73CFC09B000BD2DE9CB
:10423000F05F80464646CA48007838B1C8480178E1
:10424000C848FEF7F3FBADA0FEF7FEFB38E130787F
:10425000232844D1C4A1701C03F058FA834605F00A
:104260004DF9044603F0B1FCC7B2002F37DD642FCF
:1042700035DA0A2F14DAF119081DBCA103F046FA49
:10428000834605F03BF9044603F09FFC00F0FF096C
:104290004A463946F01C00F08EFA8246F61C13E0BE
:1042A000F119481DB1A103F031FA834605F026F952
:1042B000044603F08AFC00F0FF094A463946301DE7
:1042C00000F079FA8246361DBAF1000F07D0A8A196
:1042D000304603F0F0F918B10020FFF7D2F8EEE015
:1042E000A4A1304603F0E7F9F8B19FA1304603F0EE
:1042F0000DFA9DA1002003F009FA834605F0FEF8AF
:10430000044603F08FFC9C4908609CA1002003F048
:10431000FDF9834605F0F2F8044603F083FC984962
:1043200008600620FFF7ADF8C9E096A1304603F01B
:10433000C2F9F8B18CA1304603F0E8F98AA1002057
:1043400003F0E4F9834605F0D9F8044603F06AFC6B
:104350008949086089A1002003F0D8F9834605F057
:10436000CDF8044603F05EFC854908600520FFF7A0
:1043700088F8A4E084A1304603F09DF970B37AA1D7
:10438000304603F0C3F978A1002003F0BFF983465B
:1043900005F0B4F8044603F045FC5949086072A1E1
:1043A000002003F0B3F9834605F0A8F8044603F0B3
:1043B00039FC5349486071A1002003F0A7F98346F6
:1043C00005F09CF8044603F02DFC4D498860002060
:1043D00000F081F90020FFF7C2FE70E06BA13046CB
:1043E00003F069F970B360A1304603F08FF95EA164
:1043F000002003F08BF9834605F080F8044603F0B3
:1044000011FC4549086058A1002003F07FF983465C
:1044100005F074F8044603F005FC3F49486057A1D5
:10442000002003F073F9834605F068F8044603F0B2
:10443000F9FB39498860012000F04DF90120FFF7B0
:104440008EFE3CE052A1304603F035F918B1002051
:10445000FFF785FE33E04FA1304603F02CF918B189
:104460000120FFF77CFE2AE04BA1304603F023F940
:1044700030B1002000F04AF90020FFF770FE1EE086
:1044800046A1304603F017F930B1012000F03EF9A3
:104490000120FFF764FE12E041A1304603F00BF962
:1044A00028B101203F490870FFF7A0FE07E03EA1B8
:1044B000304603F000F910B100203A490870761C2C
:1044C000A6EB0800264909788842FFF6C0AE002016
:1044D000234908708021234803F0E1F8BDE8F09FEC
:1044E00000003443CC000020D8000020DE00002073
:1044F000562C25642C25642C252E30660D0A0000D0
:104500003800002041502C252E32662C252E326694
:104510002C252E32660D0A004400002053502C2515
:104520002E32662C252E32662C252E32660D0A0080
:104530007C9500087795000872950008492C257332
:104540002C25732C25730D0A00000000300000207C
:1045500028000020522C25642C25640D0A00000040
:1045600032000020A80100202C0000003B000000C9
:1045700043530000434A0000EC0000202A000000E2
:10458000F0000020434D00005341500053535000B1
:10459000474150004753500052410000525600001E
:1045A00052420000E8000020525300002DE9F04183
:1045B00006460D4617460024FDF7B9FC3520FDF7E9
:1045C00054FF00BF05E05F48205C5F490855601C50
:1045D000C4B2802CF7DB002406E015F8010B31197A
:1045E000594A5054601CC4B2BC42F6DB5548FDF732
:1045F000E4FC002407E0544A1159524AA018FDF780
:10460000ADFD201DC4B2802CF5DB3520FDF72DFF5C
:10461000FDF799FCBDE8F08110B50346002006E0E7
:10462000484C1C44245C01F8014B441CE0B290420D
:10463000F6DB10BD08B5012269463220FFF7ECFF1A
:104640009DF80000012805D10C2240493320FFF7D6
:10465000E3FF04E00C223D490220FFF7DDFF0122C9
:1046600069464820FFF7D8FF9DF80000012805D1D2
:104670000C2237494920FFF7CFFF04E00C223449D0
:104680001220FFF7C9FF08BD08B5022269460020C5
:10469000FFF7C2FF9DF80000A52806D19DF8010094
:1046A0005A2802D1FFF7C6FF14E0A5208DF80000BC
:1046B0005A208DF80100022269460020FFF776FF9C
:1046C0000C2222490220FFF771FF0C222049122000
:1046D000FFF76CFF08BD38B504460120009054B9BF
:1046E000012269463220FFF761FF0C22174933206F
:1046F000FFF75CFF09E0012269464820FFF756FFFB
:104700000C2213494920FFF751FF38BD38B5044644
:104710000020009054B9012269463220FFF746FF7D
:104720000C220A490220FFF777FF09E001226946BF
:104730004820FFF73BFF0C2205491220FFF76CFFD2
:1047400038BD000000F000084402002038000020BE
:1047500044000020274A002105E012F8013B00F840
:10476000013B4B1CD9B20C29F7DB704730B5024630
:104770000023002000BF04E012F8014B60405C1CE5
:10478000E3B28B42F8DB30BD10B588B06846FFF766
:10479000E1FF0C216846FFF7E9FF0446224616A117
:1047A000684603F0B3FE1AA0FEF77BF96846FEF7F1
:1047B00078F908B010BDF0B505460E46144600273E
:1047C00031462846FFF7D2FF0746A74201D1012014
:1047D000F0BD0020FCE730B502460020002305E0D4
:1047E00012F8015B2C18E0B25C1CE3B28B42F7DBE1
:1047F00030BD0000E8F7FF1F41542B4E414D454DA1
:104800005742616C616E6365642D25580D0A000086
:1048100041540D0A00000000064880470648004742
:10482000FEE7FEE7FEE7FEE7FEE7FEE7FEE7FEE760
:10483000FEE7FEE781250008ED00000838B50446D4
:10484000FB4890F82400C0B114B10220009001E0B0
:1048500000200090F64A1268D17BF54A5268107821
:104860006B460122FFF736FB10B14FF0FF3038BD29
:104870009DF80010EE48417423E0ED48807A10B9AD
:104880004FF0FF30F3E724B1E948407C08B1002045
:10489000EDE714B10120009001E000200090E44A0F
:1048A0001268D17BE24A526810786B460122FFF70A
:1048B00011FB10B14FF0FF30D9E79DF80010DC4834
:1048C00041740020D3E738B5002419E0D8480068C7
:1048D000C07AA04204D0D6480068407DA04200D1F2
:1048E0000CE0D349496808786B4601222146FFF75E
:1048F00040FB10B14FF0FF3038BD00BF601CC4B2A8
:10490000CB4840680079A042E0DC0020F4E770B5B5
:1049100004460D46C6480068C07AA04204D0C44888
:104920000068407DA04202D14FF0FF3070BDC0480A
:1049300040680079A04202DC4FF0FF30F6E7BC4946
:10494000496808782B4601222146FFF712FBEDE764
:1049500038B50446B64890F82300A04201D10020A3
:1049600038BD14B13020009001E000200090B04824
:10497000807C20B19DF8000040F002000090AC481F
:1049800090F8220020B19DF8000040F080000090D7
:10499000A74A1268117DA64A526810786B46012218
:1049A000FFF798FA10B14FF0FF30D9E7A04880F830
:1049B00023400020D4E738B5044614F0700F02D02D
:1049C0000120009005E014B10020009001E040209B
:1049D0000090974A1268917C954A526810786B460D
:1049E0000122FFF777FA20B1002191488172481E19
:1049F00038BD9DF8000020F040008D49087300206C
:104A0000009014F0400F04D19DF8000040F0040025
:104A1000009014F0200F04D19DF8000040F0020037
:104A2000009014F0100F04D19DF8000040F0010038
:104A3000009014F0080F04D19DF8000040F03800F9
:104A400000907B4A1268D17C794A526810786B4694
:104A50000122FFF73FFA20B1002175488172481EFC
:104A6000C6E724B1082C02D00020FFF771FF704880
:104A70008472002101753220FFF7C9FA0020B7E7E0
:104A800038B504466A48807CA04201D1002038BD78
:104A9000F4B3674A12681179654A526810786B4618
:104AA0000122FFF766FA10B14FF0FF30EFE79DF8F3
:104AB000000020F0200000905D4A126811795C4AE5
:104AC000526810786B460122FFF704FA10B14FF0DC
:104AD000FF30DCE70320FFF79AFA022000905448E9
:104AE00090F8220020B19DF8000040F08000009076
:104AF0004F4890F8230020B19DF8000040F03000AE
:104B000000904B4A1268117D494A5268107800E0C3
:104B100007E06B460122FFF7DDF9C0B34FF0FF302D
:104B2000B5E7434A12681179414A526810786B46DA
:104B30000122FFF71EFA10B14FF0FF30A7E73C4803
:104B4000807A10F0010F05D09DF8000040F02000A1
:104B5000009004E09DF8000020F020000090344A0E
:104B600012681179324A526810786B460122FFF7B9
:104B7000B1F910B14FF0FF3089E70320FFF747FA92
:104B80002B4890F8220018B18020009002E018E035
:104B900000200090264890F8230020B19DF80000E6
:104BA00040F030000090224A1268117D204A52687D
:104BB00010786B460122FFF78DF910B14FF0FF30EE
:104BC00065E71B488474002061E708B51848807ABF
:104BD00010B94FF0FF3008BD00200090144A126851
:104BE000D17B134A526810786B460122FFF772F9A5
:104BF00010B14FF0FF30EEE70D4A126851790C4AC0
:104C0000526810786B460122FFF764F910B14FF03B
:104C1000FF30E0E7064A12681179054A52681078B9
:104C20006B460122FFF756F920B14FF0FF30D2E773
:104C3000F4000020F84890F8240090B30C20009075
:104C4000F54A12681179F44A526810786B460122CD
:104C5000FFF740F910B14FF0FF30BCE73220FFF70B
:104C6000D6F9C0200090EC48807A10F0010F04D0F3
:104C70009DF8000040F020000090E74A126811798A
:104C8000E54A526810786B460122FFF723F910B10C
:104C90004FF0FF309FE7E048407C18B102200090C1
:104CA00002E01FE000200090DB4A1268D17BDA4A64
:104CB000526810786B460122FFF70CF910B14FF0E3
:104CC000FF3088E700200090D34A12685179D24A19
:104CD000526810786B460122FFF7FCF8B0B34FF032
:104CE000FF3078E704200090CB4A12681179CA4A55
:104CF000526810786B460122FFF7ECF810B14FF0C4
:104D0000FF3068E7C448807C20B9C348807A10F03F
:104D1000010F02D14020009001E060200090BE4AC7
:104D200012681179BC4A526810786B460122FFF76D
:104D3000D1F810B14FF0FF304DE73220FFF767F99F
:104D4000B548407C18B10120009002E01EE0002030
:104D50000090B14A1268D17BAF4A526810786B4616
:104D60000122FFF7B7F810B14FF0FF3033E7AA4A3E
:104D700012685179A84A52681078A74B1033012263
:104D8000FFF7A8F810B14FF0FF3024E7002022E72A
:104D900070B50446002624F001049F4890F82400D2
:104DA00008B1002070BD9C48807A10B94FF0FF30E8
:104DB000F8E79948057C807A2040974908740846AE
:104DC000007CA04202D04FF0FF3600E0002614B96C
:104DD0009148007D18B10120FFF730FD02E000206E
:104DE000FFF72CFD3CB1FFF7F0FE20B18A480574B7
:104DF0004FF0FF30D6E73046D4E738B50446864852
:104E0000807A10B94FF0FF3038BDBC2C02DB012096
:104E1000009015E0622C02DB0220009010E02A2CAA
:104E200002DB032000900BE0142C02DB0420009036
:104E300006E00A2C02DB0520009001E0062000902D
:104E40007548C07A9DF80010884201D10020DBE748
:104E5000714A12689178704A526810786B46012244
:104E6000FFF738F810B14FF0FF30CDE79DF8001094
:104E70006948C1720020C7E738B50446282C02DD16
:104E80004FF0FF3038BDDCB90020FFF761FD002096
:104E90008DF8000007208DF801005F4A1268917CB0
:104EA0005D4A526810786B460222FFF713F810B182
:104EB0004FF0FF30E6E70021574801750020E1E799
:104EC0000120FFF745FD20208DF80000012C06D1C0
:104ED00000208DF801000520FFF78FFF17E0052C5B
:104EE00006DC01208DF801000520FFF786FF0EE0AB
:104EF000142C06DC02208DF801000A20FFF77DFF4C
:104F000005E003208DF801001420FFF776FF9DF8DF
:104F10000100072101EB8010C0B28DF801003E4A6C
:104F20001268917C3C4A526810786B460222FEF768
:104F3000D1FF10B14FF0FF30A4E70821364881724D
:104F400000210173012101750020FFF721FF0020DE
:104F500098E738B504463048807A10B94FF0FF30F2
:104F600038BD2D4890F8240010B14FF0FF30F7E71E
:104F70002948007D50B134B1282C04DCE0B2FFF7A1
:104F80007BFF0020ECE70020FFF776FF042C01DA1E
:104F9000042404E0B4F57A7F01DD4FF47A744FF411
:104FA0007A7090FBF4F0401EC0B200901A4A12686A
:104FB0005178194A526810786B460122FEF78AFF31
:104FC00010B14FF0FF30CBE79DF80000401C4FF4CC
:104FD0007A7191FBF0F081B20F48C1810146C98915
:104FE0004810FFF70AFF0020BAE738B504460A4820
:104FF000807A10B94FF0FF3038BD022C06D0042C57
:1050000007D0082C0AD0102C0ED10AE00020009006
:105010000DE0082000900AE0F4000020102000902D
:1050200005E01820009002E04FF0FF30E4E700BFF9
:10503000F948407A9DF80010B0EBE10F01D1002053
:10504000DAE7F54A1268D179F34A526810786B466C
:105050000122FEF73FFF10B14FF0FF30CCE79DF883
:105060000000C010EC4948720020C5E738B504467E
:10507000E948807A10B94FF0FF3038BDFA2C09D0DA
:10508000B4F5FA7F09D0B4F57A7F09D0B4F5FA6F98
:105090000CD108E0002000900BE00820009008E010
:1050A0001020009005E01820009002E04FF0FF3043
:1050B000E3E700BFD848007A9DF80010B0EBE10F9D
:1050C00001D10020D9E7D44A12689179D24A5268B6
:1050D00010786B460122FEF7FDFE10B14FF0FF3055
:1050E000CBE79DF80000C010CB4908720020C4E750
:1050F0001CB580208DF80000C74A1268917CC64A12
:10510000526810786B460122FEF7E4FE10B14FF0B2
:10511000FF301CBD6420FEF77AFF00208DF80000F0
:10512000BD4A1268917CBC4A526810786B460122D5
:10513000FEF7D0FE10B14FF0FF30EAE7B64A126832
:10514000917DB54A526810786B460622FEF711FF32
:1051500010B14FF0FF30DCE79DF80500C007400FAD
:105160009DF8031001F0010140EA41009DF8011093
:1051700001F0010140EA01048CB1012C03D10121AD
:10518000A548C17430E0022C03D10021A248C174AB
:105190002AE0A2A0FDF758FC4FF0FF30B9E79E4A85
:1051A0001268D1789C4A526810786B460122FEF74B
:1051B000E0FE10B14FF0FF30ABE79DF8000000F0CB
:1051C0000F042CB99F48FDF73FFC4FF0FF30A0E7DC
:1051D000042C06D19CA0FDF737FC01218E48C17438
:1051E00002E000218C48C174FF218B488172FF20AE
:1051F00089490872FF2188484172C1724FF6FF71D8
:10520000C181FF21017481740121017380F8221092
:10521000002180F82310417501750830C0F80E1088
:10522000C0F81210C0F81610083880F8241080F862
:105230002510C1844FF4FA60FFF718FF10B14FF04A
:10524000FF3066E70220FFF7D0FE10B14FF0FF30CD
:105250005FE72A20FFF7D1FD10B14FF0FF3058E78C
:105260003220FFF776FE10B14FF0FF3051E70020FB
:10527000FFF78EFD10B14FF0FF304AE70020FFF737
:10528000FFFB10B14FF0FF3043E70020FFF793FB27
:1052900000203EE77CB504460D465F48807A10F05A
:1052A000700F02D14FF0FF307CBD5B4A1268117B5A
:1052B000594A526810786B460622FEF75AFE10B122
:1052C0004FF0FF30F0E79DF801009DF8001040EA34
:1052D000012000B220809DF803009DF8021040EAF2
:1052E000012000B260809DF805009DF8041040EA9E
:1052F000012000B2A08015B12846FEF794FE0020E0
:10530000D2E77CB504460D464348807A10F0080F7A
:1053100002D14FF0FF307CBD3F4A1268517B3E4ABC
:10532000526810786B460622FEF723FE10B14FF04C
:10533000FF30F0E79DF801009DF8001040EA0120E1
:1053400000B220809DF803009DF8021040EA012081
:1053500000B260809DF805009DF8041040EA01202D
:1053600000B2A08015B12846FEF75DFE0020D2E70E
:105370002DE9FE4F05460C462748807A18B94FF0B4
:10538000FF30BDE8FE8F244A1268917B224A5268A2
:10539000107802AB0222FEF7ECFD10B14FF0FF30A7
:1053A000EFE79DF809009DF8081040EA012006B2D9
:1053B00014B12046FEF737FE17494968C88802F045
:1053C000B4FB154901904968B1F9080002F0A4FB4B
:1053D0008346304602F0A0FB5946009002F00AFADC
:1053E0008246019902F042FA81461F4902F0B0F963
:1053F00080464FF08F4102F003FA074602F0B8FBF7
:1054000028600020BDE710B588B004461CB94FF0F5
:10541000FF3008B010BD29E0F4000020556E737510
:1054200070706F7274656420736F667477617265F3
:105430002070726F64756374207265762025642E07
:105440000A000000DC95000848616C662073656EF8
:105450007369746976697479207061727420666FFB
:10546000756E642E0A00000000000C42206830B9FE
:10547000606820B9A06810B9002008B010BDFA49D2
:105480004968087806AB03221146FEF772FD10B199
:105490004FF0FF30F1E79DF81800082101EB2010D4
:1054A00000F00F00ADF800009DF8190001EB20108E
:1054B00000F00F00ADF802009DF81A0001EB20107B
:1054C00000F00F00ADF8040020684100BDF90000B5
:1054D000403091FBF0F000B2ADF810006068410080
:1054E000BDF90200403091FBF0F000B2ADF81200BF
:1054F000A0684100BDF90400403091FBF0F000B21B
:10550000ADF81400D8494968087806AB0622114660
:10551000FEF72FFD10B14FF0FF30AEE79DF81900F8
:105520009DF8181040EA012000B2ADF808009DF87F
:105530001B009DF81A1040EA012000B2ADF80A00E5
:105540009DF81D009DF81C1040EA012000B2ADF846
:105550000C00BDF81000BDF80810084400B2ADF80A
:105560001000BDF81200BDF80A10084400B2ADF8F2
:105570001200BDF81400BDF80C10084400B2ADF8DC
:105580001400BDF81000000A8DF81800BDF81000D6
:10559000C0B28DF81900BDF81200000A8DF81A008B
:1055A000BDF81200C0B28DF81B00BDF81400000A4F
:1055B0008DF81C00BDF81400C0B28DF81D00AA497A
:1055C0004968087806AB06221146FEF783FC10B145
:1055D0004FF0FF3051E700204FE70146A248007A24
:1055E00030B1012807D0022809D003280FD10AE0E2
:1055F000FA2008800EE04FF4FA7008800AE04FF4B9
:105600007A70088006E04FF4FA60088002E000201B
:10561000088000BF00BF0020704701469248407AD2
:1056200030B1012807D0022808D003280CD108E0A7
:10563000022008700BE00420087008E008200870C1
:1056400005E01020087002E04FF0FF30704700BF07
:105650008548C07C18B108784006000E087000200C
:10566000F4E701468048C07A082817D2DFE800F046
:105670001704070A0D101318BC20088013E06220DD
:10568000088010E02A2008800DE0142008800AE03D
:105690000A20088007E00520088004E000BF00BF62
:1056A0000020088000BF00BF0020704701466E4800
:1056B00090F8240010B14FF0FF3070476A48C0895D
:1056C00008800020F9E7014600200880401E70474E
:1056D00001464FF0FF30704701466348007A30B111
:1056E000012807D0022808D003280CD108E05F4821
:1056F00008600BE05E48086008E05E48086005E06E
:105700005D48086002E04FF0FF30704700BF0020A6
:10571000FBE701465448407A30B1012808D00228FE
:105720000AD0032810D10BE04FF4804008800EE02F
:1057300041F69C7008800AE04FF48050088006E033
:105740004FF40060088002E04FF0FF30704700BF68
:105750004548C07C10B10888401008800020F5E75B
:1057600001464148007C08700020704701463E48D1
:10577000807A10B10120087001E00020087000203C
:10578000704738B504463848807A10B94FF0FF307A
:1057900038BD354A1268117C334A526810786B461E
:1057A0000222FEF7E6FB10B14FF0FF30F0E79DF864
:1057B00001009DF8001040EA012000B22080002086
:1057C000E6E72DE9FE4F8046894692461D46DDF804
:1057D00030B000260024244890F8240010B1601E48
:1057E000BDE8FE8F002028701F48807A10B94FF066
:1057F000FF30F5E71C48007C10B94FF0FF30EFE7B1
:105800001948007C10F0400F01D0B01CC6B21648F9
:10581000007C10F0200F01D0B01CC6B21248007CF2
:1058200010F0100F01D0B01CC6B20F48007C10F071
:10583000080F01D0B01DC6B20B4A1268917A0A4A0D
:10584000526810786B460222FEF793FB10B14FF0BE
:10585000FF30C5E79DF801009DF8001040EA0127E0
:10586000B7420BDA0020BBE7F4000020000003433E
:10587000000083423333034233338341FB484068A3
:105880004088B7EB600F17DDF84A1268517CF74A81
:10589000526810786B460122FEF76BFB10B14FF097
:1058A000FF309DE79DF8000010F0100F04D0FFF7C7
:1058B0008CF96FF0010093E75046FEF7B4FBEB4A1A
:1058C0001268D17AE94A526810786B463246FEF780
:1058D00050FB10B14FF0FF3082E797FBF6F0401E0F
:1058E0008BF8000000202870B4422AD0DF48007CEA
:1058F00010F0080F25D0601C1DF800001DF80410E2
:1059000040EA012000B2A9F80000E01C1DF80010D8
:10591000A01C1DF8000041EA002000B2A9F8020016
:10592000601D1DF80010201D1DF8000041EA002038
:1059300000B2A9F80400287840F008002870A01DE3
:1059400084B2B44214D0C948007C10F0400F0FD08C
:10595000601C1DF800001DF8041040EA012000B290
:10596000A8F80000287840F040002870A01C84B2FD
:10597000B44214D0BD48007C10F0200F0FD0601C42
:105980001DF800001DF8041040EA012000B2A8F83C
:105990000200287840F020002870A01C84B2B44295
:1059A00014D0B248007C10F0100F0FD0601C1DF80E
:1059B00000001DF8041040EA012000B2A8F804001D
:1059C000287840F010002870A01C84B2002007E75F
:1059D000F8B505460F461646A44890F8240010B9BD
:1059E0004FF0FF30F8BDA148807A10B94FF0FF307A
:1059F000F8E79E4A1268917A9C4A526810786B4682
:105A00000222FEF7B6FA10B14FF0FF30EAE79DF838
:105A100001009DF8001040EA0124AC4203DA0020A6
:105A20003070401EDEE7914840684088B4EB600F5C
:105A300017DD8E4A1268517C8C4A526810786B468A
:105A40000122FEF796FA10B14FF0FF30CAE79DF839
:105A5000000010F0100F04D0FFF7B7F86FF001004E
:105A6000C0E7824A1268D17A804A526810783B4671
:105A7000EAB2FEF77EFA10B14FF0FF30B2E794FBC6
:105A8000F5F0401E30700020ACE70146774880F802
:105A90002210002070477CB5054674494968087893
:105AA00001AB04220D21FEF764FA08B107207CBD8A
:105AB0009DF80700C0F301109DF8041001F0E0010B
:105AC00040EAE1008DF800009DF80700C0F3810076
:105AD0009DF8051001F0E00140EAE1008DF80100B9
